:020000040800F2
:1000000000200020E10800082D0900082D09000843
:1000100000000000000000000000000000000000E0
:100020000000000000000000000000002D09000892
:1000300000000000000000002D0900082D09000844
:100040002D0900082D0900082D0900082D090008B8
:100050002D0900082D0900082D0900082D090008A8
:100060002D0900082D0900082D0900082D09000898
:100070002D0900082D0900082D0900082D09000888
:100080002D0900082D090008000000002D090008B6
:100090002D0900082D0900082D0900082D09000868
:1000A0002D0900082D0900082D0900082D09000858
:1000B0002D090008000000002D09000800000000C4
:1000C0005FF808F180B582B000AF021CFB1D1A700A
:1000D000044B00221A70034AFB1D1B781370BD46A7
:1000E00002B080BD0210024080B582B000AF7860DF
:1000F0003960084B074A526807490A405A60054B65
:10010000044A516878683A6802430A435A60BD4617
:1001100002B080BD00100240FFFFC2FF80B582B078
:1001200000AF021CFB1D1A70FB1D1B78002B07D0B3
:10013000084B084A1268802149040A431A6005E006
:10014000044B044A126804490A401A60BD4602B0D2
:1001500080BDC04600100240FFFFFFFE80B584B0A6
:1001600000AF78600023FB60084BDB6AFB60FB6834
:100170000F229343FB60FA687B681343FB60034BD9
:10018000FA68DA62BD4604B080BDC0460010024085
:1001900080B584B000AF78600023FB60084B5B68DB
:1001A000FB60FB6803229343FB60FA687B681343A0
:1001B000FB60034BFA685A60BD4604B080BDC04680
:1001C0000010024080B582B000AF78600E4B0E4A3E
:1001D00052680E490A405A600B4B0B4A51687A68C4
:1001E0001204120C0A435A60074B074A126B084963
:1001F0000A401A63044B044A116B7A68120C0A43D2
:100200001A63BD4602B080BD00100240FFBFFFFF71
:10021000FFFEFFFF80B588B000AF78600023FB6170
:100220000023BB6100237B6100233B610023FB6053
:10023000654B5B680C221340FB61FB69042B07D004
:10024000082B09D0002B31D17B68604A1A6031E05D
:100250007B685E4A1A602DE05B4B5A68F0239B0373
:100260001340BB61584B5A6880235B0213407B618B
:10027000BB699B0C0233BB617B69002B05D1BB6959
:10028000534A5A437B681A6014E04F4BDB6A0F22D3
:10029000134001333B614D48396900F0CBFD031C2D
:1002A0001A1CBB695A437B681A6003E07B68474AA3
:1002B0001A60C046444B5B68F0221340FB61FB6947
:1002C0001B09FB61434AFB69D3181B78DBB2FB6057
:1002D0007B681A68FB68DA407B685A603A4B5A6858
:1002E000E023DB001340FB61FB691B0AFB61394A19
:1002F000FB69D3181B78DBB2FB607B685A68FB682C
:10030000DA407B689A60304B1A6B80235B001340A5
:1003100003D17B68304ADA6010E02B4B5A688023A7
:10032000DB01134005D17B689B685A087B68DA6063
:1003300004E07B689B689A087B68DA60224B1B6B41
:100340004022134003D17B68244A1A6103E07B6892
:10035000802212021A611C4B1B6B1022134003D126
:100360007B681A4A5A6103E07B681A687B685A61A5
:10037000154B1B6B0322134004D17B689A687B6882
:100380009A611EE0104B1B6B03221340012B04D11A
:100390007B681A687B689A6113E00B4B1B6B032226
:1003A0001340022B04D17B68802212029A6108E07C
:1003B000054B1B6B03221340032B02D17B68034ABE
:1003C0009A61BD4608B080BD0010024000127A005C
:1003D00000093D0000000020809FD5001280000031
:1003E00080B582B000AF78600A1CFB1C1A70FB1C41
:1003F0001B78002B06D0084B074A51697A680A43DC
:100400005A6106E0044B044A52697968C9430A40BC
:100410005A61BD4602B080BD0010024080B582B076
:1004200000AF78600A1CFB1C1A70FB1C1B78002BA9
:1004300006D0084B074A91697A680A439A6106E038
:10044000044B044A92697968C9430A409A61BD46DF
:1004500002B080BD0010024080B586B000AF021C23
:10046000FB1D1A700023FB6000237B611323FB1824
:1004700000221A70FB1D1B785B09DBB2FB60FB6876
:10048000002B03D1184B1B687B6110E0FB68012B2C
:1004900003D1154B1B6A7B6109E0FB68022B03D17A
:1004A000114B5B6A7B6102E00F4B5B6B7B61FB1D59
:1004B0001B781F221340FB60FB687A69DA40131C2B
:1004C0000122134004D01323FB1801221A7003E009
:1004D0001323FB1800221A701323FB181B78181C17
:1004E000BD4606B080BDC0460010024080B584B055
:1004F00000AF786039600023FB607B68DB68FB60DD
:10050000FB680F4A1340FB603B681A683B681B7925
:100510005B031A433B689B681A433B68DB681A43DA
:100520003B681B691A433B685B691343FA681343D2
:10053000FB607B68FA68DA60BD4604B080BDC046E7
:1005400003D2FFFF80B582B000AF78600A1CFB1CAD
:100550001A70FB1C1B78002B06D07B689B6801225D
:100560001A437B689A6005E07B689B6802221A4305
:100570007B689A60BD4602B080BDC04680B586B03B
:1005800000AFF860B9607A6000237B61FB689A6A0B
:10059000BB681A43FB689A627B69072293437B61BD
:1005A0007A697B6813437B61FB687A695A61BD464F
:1005B00006B080BD80B586B000AF786000237B6157
:1005C00000233B610023FB607B689B68802212064E
:1005D0001A437B689A607B689B68DB0FDB07FB60D4
:1005E0003B6901333B613A69F0231B029A4202D016
:1005F000FB68002BEFD17B689B68002B03DB7B68DB
:100600001B6C7B6101E000237B617B69181CBD468C
:1006100006B080BD80B582B000AF78607B689B6813
:1006200004221A437B689A60BD4602B080BDC04672
:1006300080B582B000AF78600A1CFB1C1A70FB1CEE
:100640001B78002B06D07B68DB6801221A437B688D
:10065000DA6006E07B68DB68012293431A1C7B6842
:10066000DA60BD4602B080BD80B584B000AF78606E
:1006700039600F23FB1800221A700023BB603A6810
:1006800080235B04134005D07B689B680D4A1340B0
:10069000BB6002E07B681B68BB60BB683A681340C4
:1006A00004D00F23FB1801221A7003E00F23FB185C
:1006B00000221A700F23FB181B78181CBD4604B0CB
:1006C00080BDC046FFFFFFFE80B582B000AF0020B6
:1006D000FFF75EFD0520FFF7F5FC0120FFF73EFD6B
:1006E0000020FFF71BFD80235A02A0239B03101C50
:1006F000191CFFF7F9FC0120FFF710FDC046192077
:10070000FFF7AAFE031EFAD00220FFF741FD802367
:100710009B02181C0121FFF763FE01200121FFF756
:100720005FFE80239B00181C0121FFF777FE8023CA
:100730005B02181C0121FFF771FE5D4B181CFFF7CF
:1007400069FD80235B04181CFFF73CFD594B012217
:100750001A60584B03221A71564B00229A71554B5E
:100760000122DA71534B03225A719023DA05514B5F
:10077000101C191C00F018FA4F4B00221A714E4B36
:1007800000221A614C4B80225200DA604A4B8022D0
:10079000D2009A60484B10221A60474B00225A61DF
:1007A000464A454B101C191CFFF7A0FE434B181C72
:1007B000FFF700FF414B181C0121FFF739FF3F4BAA
:1007C000181C0121FFF7BEFEC0463C4B181C01213E
:1007D000FFF74AFF031EF8D0384B181C01210022F6
:1007E000FFF7CCFE364B00221A81354B00225A808F
:1007F0002F4B9B68181C334900F01CFB031C5A1E2E
:100800002F4B5A602E4B00221A802D4B00229A72D9
:100810002D4A2B4B101C191C00F058FA2A4B181C9F
:10082000202100F0EBFA294B294ADA60274B0022FD
:100830009A60264B00229A62264A244B5A60234B28
:100840000022DA61214B80225A61204B20221A6259
:100850001E4B214A1A601D4B00229A611B4B00223D
:100860001A611A4BC02292015A621C4A174B101C83
:10087000191C00F05DF8194B181C012100F094F8C8
:10088000114B181C012100F099FA00237B600B4BDF
:10089000181CFFF7BFFEC046022000F0A3F8031E9D
:1008A000FAD0022000F0BEF87B6801337B60EEE7EF
:1008B000C81D0020C01D0020881D0020002401400C
:1008C000B41D002040420F00004001405C1D00208C
:1008D0004C1D000010000020402401400800024090
:1008E0000C488546002103E00B4B5B584350043114
:1008F0000A480B4B42189A42F6D30A4A02E00023F8
:1009000013600432084B9A42F9D300F097F8FFF7CE
:10091000DBFEFEE700200020580F0008000000204A
:100920001000002010000020E41D0020FEE7000061
:1009300080B584B000AF786039600023FB607B68CD
:100940001B68FB60FB68174A1340FB603B689A68B2
:100950003B681B6A1A433B681B691A433B685B6927
:100960001A433B689B691A433B68DB691A433B683F
:100970005B6A1A433B689B6A1343FA681343FB6044
:100980007B68FA681A603B68DA687B685A603B6883
:100990001A687B689A603B685A687B68DA60BD4673
:1009A00004B080BD0F80FFFF80B582B000AF7860DB
:1009B0000A1CFB1C1A70FB1C1B78002B06D07B68E2
:1009C0001B6801221A437B681A6005E07B681B687C
:1009D000034A1A407B681A60BD4602B080BDC0461B
:1009E000FEFF000080B584B000AF78600F23FB18D5
:1009F00000221A700A4B1B687A68134004D00F2338
:100A0000FB1801221A7003E00F23FB1800221A7052
:100A10000F23FB181B78181CBD4604B080BDC046D0
:100A20000000024080B582B000AF7860024B7A6867
:100A30005A60BD4602B080BD0000024080B500AFE4
:100A40001B4B1B4A126801210A431A60184B184AB3
:100A5000526818490A405A60154B154A12681649DF
:100A60000A401A60124B124A126814490A401A606E
:100A70000F4B0F4A526812490A405A600C4B0C4AFD
:100A8000D26A0F218A43DA62094B094A126B0D4977
:100A90000A401A63064B064A526B01218A435A6385
:100AA000034B00229A6000F00FF8BD4680BDC0469F
:100AB000001002400CB8FFF8FFFFF6FEFFFFFBFF3F
:100AC000FFFFC0FFACFEFFFF80B582B000AF002388
:100AD0007B6000233B60314B304A12688021490221
:100AE0000A431A602D4B1A6880239B0213403B6017
:100AF0007B6801337B603B68002B04D17A68A023BC
:100B0000DB019A42EED1254B1A6880239B021340E9
:100B100002D001233B6001E000233B603B68012BD6
:100B200038D11F4B11221A601C4B1C4A52685A6064
:100B30001A4B1A4A52685A60184B184A5268194997
:100B40000A405A60154B154A5268882149030A43E6
:100B50005A60124B114A1268802149040A431A60F4
:100B6000C0460E4B1A6880239B041340F9D00B4BF0
:100B70000A4A526803218A435A60084B074A52685E
:100B800002210A435A60C046044B5B680C221340A2
:100B9000082BF9D1BD4602B080BDC046001002400E
:100BA00000200240FFFFC0FF80B586B000AF786034
:100BB000396000237B6100233B610023FB6000233D
:100BC0007B617CE07B6901229A40131C3B613B689E
:100BD0001B683A691340FB60FA683B699A426BD123
:100BE0003B681B79012B03D03B681B79022B34D166
:100BF0007B689B687A695200111C03228A40D243A9
:100C00001A407B689A607B689A683B685B79191C1C
:100C10007B695B0099400B1C1A437B689A607B6878
:100C20009B889BB27A6992B2111C01228A4092B2CF
:100C3000D24392B213409AB27B689A807B689B88B9
:100C40009AB23B689B79191C7B699BB299400B1C3B
:100C50009BB213439AB27B689A807B681B687A695F
:100C60005200111C03228A40D2431A407B681A604A
:100C70007B681A683B681B79191C7B695B0099408B
:100C80000B1C1A437B681A607B68DB687A6992B236
:100C90005200032191400A1CD2431A407B68DA605B
:100CA0007B68DA683B68DB79191C7B695B009940DB
:100CB0000B1C1A437B68DA607B6901337B617B69BB
:100CC0000F2B00D87EE7BD4606B080BD80B584B04E
:100CD00000AF786039600E23FB1800221A800E23C3
:100CE000FB187A6812881A807B682D4A934208D0D4
:100CF0007A688023DB059A4203D07B68294A9342B5
:100D000010D10E23FB180E22BA18128870218A43C4
:100D10001A803B6859880E23FB180E22BA181288D5
:100D20000A431A807B68204A934210D00E23FB1896
:100D30000E22BA1812881D490A401A803B68198988
:100D40000E23FB180E22BA1812880A431A807B68F9
:100D50000E22BA1812881A803B685A687B68DA62D9
:100D60003B681A887B681A857B680D4A93420BD0D2
:100D70007B680F4A934207D07B680E4A934203D0A8
:100D80007B680D4A934204D13B689B7A9AB27B6898
:100D90001A867B6801229A82BD4604B080BDC04697
:100DA000002C01400004004000100040FFFCFFFF49
:100DB00000400140004401400048014080B582B03D
:100DC00000AF78600A1CFB1C1A70FB1C1B78002B00
:100DD00008D07B681B889BB2012213439AB27B68C0
:100DE0001A8007E07B681B889BB2012293439AB26A
:100DF0007B681A80BD4602B080BDC04680B582B017
:100E000000AF78600A1CBB1C1A807B689B889BB271
:100E1000702293439AB27B689A807B689B889AB2CF
:100E2000BB1C1B8813439AB27B689A80BD4602B0F4
:100E300080BDC046002243088B4274D303098B4215
:100E40005FD3030A8B4244D3030B8B4228D3030C9A
:100E50008B420DD3FF22090212BA030C8B4202D33C
:100E60001212090265D0030B8B4219D300E0090A64
:100E7000C30B8B4201D3CB03C01A5241830B8B426D
:100E800001D38B03C01A5241430B8B4201D34B0356
:100E9000C01A5241030B8B4201D30B03C01A5241BB
:100EA000C30A8B4201D3CB02C01A5241830A8B4240
:100EB00001D38B02C01A5241430A8B4201D34B0229
:100EC000C01A5241030A8B4201D30B02C01A52418D
:100ED000CDD2C3098B4201D3CB01C01A5241830941
:100EE0008B4201D38B01C01A524143098B4201D37B
:100EF0004B01C01A524103098B4201D30B01C01AA6
:100F00005241C3088B4201D3CB00C01A524183081F
:100F10008B4201D38B00C01A524143088B4201D34C
:100F20004B00C01A5241411A00D2014652411046AC
:100F30007047FFE701B5002000F00CF802BDC04685
:100F40000029F7D003B5FFF775FF0EBC4243891A9D
:080F50001847C0467047C04677
:100F58000000000001020304010203040607080957
:0400000508000000EF
:00000001FF
